:100000000C9453000C947B000C947B000C947B00AC
:100010000C947B000C947B000C947B000C947B0074
:100020000C947B000C947B000C947B000C947B0064
:100030000C947B000C947B000C947B000C947B0054
:100040000C94E7020C947B000C9457030C9431033E
:100050000C947B000C947B000C947B000C947B0034
:100060000C947B000C947B0000000000250028000D
:100070002B0000000000240027002A0004040404D0
:100080000404040402020202020203030303030342
:10009000010204081020408001020408102001021F
:1000A00004081020B30411241FBECFEFD8E0DEBF38
:1000B000CDBF11E0A0E0B1E0E6E9FEE002C00590AE
:1000C0000D92AE33B107D9F721E0AEE3B1E001C044
:1000D0001D92AC3EB207E1F710E0C3E5D0E004C0EA
:1000E0002197FE010E943E07C235D107C9F70E9441
:1000F00089030C9449070C9400003FB7F894809151
:100100004B0190914C01A0914D01B0914E0126B54B
:10011000A89B05C02F3F19F00196A11DB11D3FBF3F
:10012000BA2FA92F982F8827820F911DA11DB11DCD
:10013000BC01CD0142E0660F771F881F991F4A95C9
:10014000D1F70895CF92DF92EF92FF920F931F9312
:10015000CF93DF936C017A018B01C0E0D0E0CE1524
:10016000DF0581F0D8016D918D01D601ED91FC91F3
:100170000190F081E02DC6010995892B11F021969F
:10018000EECF7E01C701DF91CF911F910F91FF90BC
:10019000EF90DF90CF900895089580E090E008956B
:1001A000FC01538D448D252F30E0842F90E0821B7D
:1001B000930B541710F0CF96089501970895FC0102
:1001C000918D828D981761F0828DDF01A80FB11D8E
:1001D0005D968C91928D9F5F9F73928F90E00895B2
:1001E0008FEF9FEF0895FC01918D828D981731F06C
:1001F000828DE80FF11D858D90E008958FEF9FEFC0
:100200000895FC01918D228D892F90E0805C9F4F95
:10021000821B91098F73992708958FE491E00E94C2
:10022000010121E0892B09F420E0822F0895FC01CF
:10023000848DDF01A80FB11DA35ABF4F2C91848D6F
:1002400090E001968F739927848FA689B7892C93A4
:10025000A089B1898C91837080648C93938D848DF7
:10026000981306C00288F389E02D80818F7D8083FA
:100270000895EF92FF920F931F93CF93DF93EC01BA
:1002800081E0888F9B8D8C8D981305C0E889F98952
:10029000808185FD26C0F62E0B8D10E00F5F1F4F6D
:1002A0000F731127E02E8C8DE8120CC00FB607FCDF
:1002B000FACFE889F989808185FFF5CFCE010E94C8
:1002C0001701F1CF8B8DFE01E80FF11DE35AFF4FAF
:1002D000F0829FB7F8940B8FEA89FB898081806256
:1002E0000AC09FB7F894EE89FF896083E889F9898D
:1002F00080818370806480839FBF81E090E0DF9184
:10030000CF911F910F91FF90EF900895CF93DF93BE
:10031000EC01888D8823C9F0EA89FB89808185FDFD
:1003200005C0A889B9898C9186FD0FC00FB607FC5E
:10033000F5CF808185FFF2CFA889B9898C9185FF9F
:10034000EDCFCE010E941701E7CFDF91CF91089545
:1003500080E090E0892B29F00E940D0181110C941E
:1003600000000895009769F0FC0101900020E9F772
:100370003197AF01481B590BBC018FE491E00C94FD
:10038000A20080E090E008952F923F924F925F92FA
:100390006F927F928F929F92AF92BF92CF92DF9295
:1003A000EF92FF920F931F93CF93DF93CDB7DEB7FA
:1003B000A4970FB6F894DEBF0FBECDBF4B015C0112
:1003C000F42E9B01AC010E941707882319F083E1EA
:1003D00091E027C024013501E89477F82FEF3FEF33
:1003E0004FE75FE7C301B2010E94170781110DC0FB
:1003F0002FEF3FEF4FE75FE7C301B2010E944D05CA
:1004000018161CF487E191E00CC02FEF3FEF4FE787
:100410005FE4C501B4010E94A50618162CF48BE117
:1004200091E00E94B201B8C02FEF3FEF4FE75FECC1
:10043000C501B4010E944D0587FDF1CF20E030E0F9
:10044000A901C501B4010E944D0587FF0BC06DE2F3
:100450008FE491E00E9439013C01B7FAB094B7F8FB
:10046000B09402C0612C712C10E060E070E080E07C
:100470009FE3F11641F020E030E040E251E40E94B9
:1004800052051F5FF6CFA50194010E94E1044B01C4
:100490005C010E94C4056AA3C72ED82EE92E19A2BA
:1004A000262F372F482F592F8E010F5D1F4F0BA37B
:1004B0001CA39AE0292E312C412C512CCA01B901E0
:1004C000A20191010E941C07605DF80162938F01F7
:1004D000211531054105510589F7CF010E94B2016F
:1004E0008301080F191FFF2009F455C06AA17C2D54
:1004F0008D2D9E2D0E94F3059B01AC01C501B40119
:100500000E94E0044B015C016EE28FE491E00E94E6
:100510003901080F191F8AE0282E312C412C512C4B
:1005200020E030E040E251E4C501B4010E94AA0697
:100530004B015C010E94C4059B0140E050E019A200
:10054000CBA0DCA0762E3AA3642EE52ECA01B90119
:10055000A20191010E941C07605DF60162936F0188
:10056000211531054105510589F7CF010E94B201DE
:10057000080F191F672D7AA1862D9E2D0E94F30565
:100580009B01AC01C501B4010E94E0044B015C0178
:10059000FA94F110C5CFC801A4960FB6F894DEBF47
:1005A0000FBECDBFDF91CF911F910F91FF90EF90C4
:1005B000DF90CF90BF90AF909F908F907F906F9083
:1005C0005F904F903F902F9008950E9444071F9294
:1005D0000F920FB60F9211242F933F938F939F93F7
:1005E000AF93BF938091470190914801A091490139
:1005F000B0914A013091460123E0230F2D3720F4BA
:100600000196A11DB11D05C026E8230F0296A11D6C
:10061000B11D209346018093470190934801A09318
:100620004901B0934A0180914B0190914C01A091F6
:100630004D01B0914E010196A11DB11D80934B015A
:1006400090934C01A0934D01B0934E01BF91AF9197
:100650009F918F913F912F910F900FBE0F901F9000
:1006600018951F920F920FB60F9211242F933F935C
:100670004F935F936F937F938F939F93AF93BF93AA
:10068000EF93FF938FE491E00E941701FF91EF91A8
:10069000BF91AF919F918F917F916F915F914F919A
:1006A0003F912F910F900FBE0F901F9018951F92A2
:1006B0000F920FB60F9211242F938F939F93EF9366
:1006C000FF93E0915F01F09160018081E09165010D
:1006D000F091660182FD12C09081809168018F5F68
:1006E0008F7320916901821751F0E0916801F0E069
:1006F000E15BFE4F958F8093680101C08081FF917F
:10070000EF919F918F912F910F900FBE0F901F909F
:100710001895789484B5826084BD84B5816084BD69
:1007200085B5826085BD85B5816085BD80916E008F
:10073000816080936E0010928100809181008260C0
:1007400080938100809181008160809381008091FD
:1007500080008160809380008091B10084608093EC
:10076000B1008091B00081608093B00080917A00E8
:10077000846080937A0080917A00826080937A000E
:1007800080917A00816080937A0080917A008068FD
:1007900080937A001092C100E0915F01F0916001B6
:1007A00082E08083E0915B01F0915C011082E09136
:1007B0005D01F0915E018FEC808310926701E09102
:1007C0006301F091640186E08083E0916101F09122
:1007D0006201808180618083E0916101F09162011A
:1007E000808188608083E0916101F0916201808165
:1007F00080688083E0916101F091620180818F7D4A
:10080000808383E080930001EEE9F0E02491EAE840
:10081000F0E084918823C1F090E0880F991FFC01DB
:10082000EE58FF4FC591D491FC01E859FF4FA591B7
:10083000B4919FB7F8948881E22FE0958E23888346
:100840008C91E823EC939FBF8091000120E4829F6C
:10085000C001112480937C0080917A008064809391
:100860007A0080917A0086FDFCCF609178008091BB
:10087000790070E0782B072E000C880B990B0E94F2
:10088000F505609342017093430180934401909376
:1008900045012DEC3CEC4CE85FE30E94AA0620E009
:1008A00030E048EC52E40E94AA0620E030E040E844
:1008B0005AE30E94AA0660933E0170933F01809321
:1008C0004001909341018FE191E00E94B20160915B
:1008D000420170914301809144019091450142E0B1
:1008E0000E94C4018DE291E00E94B20180E391E098
:1008F0000E94B20160913E0170913F0180914001E0
:100900009091410142E00E94C4018DE291E00E9479
:10091000B2010E947D006B017C0180EA882E8FE08D
:10092000982EA12CB12C0E947D00DC01CB018C19EA
:100930009D09AE09BF09883E9340A105B10598F312
:1009400081E0881A9108A108B10828EEC20E23E0C0
:10095000D21EE11CF11C81149104A104B10419F709
:100960000E94A80171CFEFE4F1E01382128288EEB9
:1009700093E0A0E0B0E084839583A683B78385E00D
:1009800091E09183808385EC90E09587848784EC67
:1009900090E09787868780EC90E0918B808B81EC4C
:1009A00090E0938B828B82EC90E0958B848B86EC2D
:1009B00090E0978B868B118E128E138E148E089575
:1009C0005058BB27AA270E94F8040C946B060E947B
:1009D0005D0638F00E94640620F039F49F3F19F458
:1009E00026F40C945A060EF4E095E7FB0C9454069A
:1009F000E92F0E947C0658F3BA1762077307840731
:100A0000950720F079F4A6F50C949E060EF4E09577
:100A10000B2EBA2FA02D0B01B90190010C01CA01B8
:100A2000A0011124FF27591B99F0593F50F4503E63
:100A300068F11A16F040A22F232F342F4427585F55
:100A4000F3CF469537952795A795F0405395C9F76D
:100A50007EF41F16BA0B620B730B840BBAF0915025
:100A6000A1F0FF0FBB1F661F771F881FC2F70EC0C4
:100A7000BA0F621F731F841F48F487957795679597
:100A8000B795F7959E3F08F0B0CF9395880F08F083
:100A90009927EE0F9795879508950E94300608F4E0
:100AA00081E008950E9466050C946B060E9464061E
:100AB00058F00E945D0640F029F45F3F29F00C9445
:100AC000540651110C949F060C945A060E947C0601
:100AD00068F39923B1F3552391F3951B550BBB276D
:100AE000AA2762177307840738F09F5F5F4F220FB2
:100AF000331F441FAA1FA9F335D00E2E3AF0E0E8A9
:100B000032D091505040E695001CCAF72BD0FE2FF2
:100B100029D0660F771F881FBB1F26173707480786
:100B2000AB07B0E809F0BB0B802DBF01FF2793583E
:100B30005F4F3AF09E3F510578F00C9454060C94A8
:100B40009F065F3FE4F3983ED4F3869577956795CB
:100B5000B795F7959F5FC9F7880F911D9695879573
:100B600097F90895E1E0660F771F881FBB1F621792
:100B700073078407BA0720F0621B730B840BBA0B50
:100B8000EE1F88F7E09508950E94840688F09F572D
:100B900098F0B92F9927B751B0F0E1F0660F771FA1
:100BA000881F991F1AF0BA95C9F714C0B13091F097
:100BB0000E949E06B1E008950C949E06672F782F40
:100BC0008827B85F39F0B93FCCF38695779567955C
:100BD000B395D9F73EF490958095709561957F4FC8
:100BE0008F4F9F4F0895E89409C097FB3EF490956E
:100BF0008095709561957F4F8F4F9F4F9923A9F0F6
:100C0000F92F96E9BB279395F69587957795679584
:100C1000B795F111F8CFFAF4BB0F11F460FF1BC0C8
:100C20006F5F7F4F8F4F9F4F16C0882311F096E95B
:100C300011C0772321F09EE8872F762F05C0662309
:100C400071F096E8862F70E060E02AF09A95660FC2
:100C5000771F881FDAF7880F9695879597F908957B
:100C6000990F0008550FAA0BE0E8FEEF16161706BD
:100C7000E807F907C0F012161306E407F50798F025
:100C8000621B730B840B950B39F40A2661F0232B3E
:100C9000242B252B21F408950A2609F4A140A695BA
:100CA0008FEF811D811D089597F99F6780E870E09F
:100CB00060E008959FEF80EC089500240A941616D2
:100CC000170618060906089500240A94121613063A
:100CD000140605060895092E0394000C11F48823C8
:100CE00052F0BB0F40F4BF2B11F460FF04C06F5FE4
:100CF0007F4F8F4F9F4F089557FD9058440F551FBA
:100D000059F05F3F71F04795880F97FB991F61F08D
:100D10009F3F79F087950895121613061406551F04
:100D2000F2CF4695F1DF08C0161617061806991F70
:100D3000F1CF86957105610508940895E894BB2765
:100D400066277727CB0197F908950E94300608F4AB
:100D50008FEF08950E94BD060C946B060E945D06FD
:100D600038F00E94640620F0952311F00C9454068C
:100D70000C945A0611240C949F060E947C0670F372
:100D8000959FC1F3950F50E0551F629FF001729F30
:100D9000BB27F00DB11D639FAA27F00DB11DAA1F3F
:100DA000649F6627B00DA11D661F829F2227B00D8C
:100DB000A11D621F739FB00DA11D621F839FA00D17
:100DC000611D221F749F3327A00D611D231F849F67
:100DD000600D211D822F762F6A2F11249F575040BE
:100DE0009AF0F1F088234AF0EE0FFF1FBB1F661F39
:100DF000771F881F91505040A9F79E3F510580F002
:100E00000C9454060C949F065F3FE4F3983ED4F391
:100E1000869577956795B795F795E7959F5FC1F7A5
:100E2000FE2B880F911D9695879597F908950E943E
:100E30003006880B990B0895A1E21A2EAA1BBB1B42
:100E4000FD010DC0AA1FBB1FEE1FFF1FA217B30796
:100E5000E407F50720F0A21BB30BE40BF50B661FAC
:100E6000771F881F991F1A9469F760957095809570
:100E700090959B01AC01BD01CF010895EE0FFF1FBE
:100E80000590F491E02D099481E090E0F8940C94A1
:060E90004907F894FFCFB2
:100E960001000000003901A200D00086010101DF37
:100EA60000F3006E616E00696E66006F7666004C38
:100EB600656374757261204144433A20000D0A004F
:0E0EC60054656D70657261747572613A20003A
:00000001FF
